:020000040000FA
:100000000C945F000C9487000C9487000C9487007C
:100010000C9487000C9487000C9487000C94DA09E8
:100020000C9487000C9487000C9487000C94870034
:100030000C9487000C9487000C9487000C94870024
:100040000C9490090C9487000C945C0A0C94360A6A
:100050000C9487000C9487000C9487000C94870004
:100060000C948E0A0C948700020000000800020124
:100070000000030407000000000000000000000072
:1000800000250028002B0000000000240027002A83
:100090000004040404040404040202020202020331
:1000A000030303030301020408102040800102043B
:1000B00008102001020408102000AD0B4E1111247D
:1000C0001FBECFEFD8E0DEBFCDBF12E0A0E0B1E0B1
:1000D000ECEFFDE202C005900D92A433B107D9F711
:1000E00023E0A4E3B2E001C01D92AC3DB207E1F70A
:1000F00010E0CEE5D0E004C02197FE010E94CE14AE
:10010000CD35D107C9F70E94010C0C94F1160C945F
:10011000000090E0FC01EB55FF4F24918F569F4F5C
:10012000FC018491882399F090E0880F991FFC01CD
:10013000E957FF4FA591B491FC01E358FF4F85911A
:1001400094918FB7F894EC91E22BEC938FBF0895C4
:1001500080E480937C0080917A00806480937A00B0
:1001600080917A0086FDFCCF809178009091790093
:10017000089590E0FC01E759FF4F2491FC01EB55F5
:10018000FF4F3491FC01EF56FF4FE491EE23C9F08D
:10019000222339F0233001F1A8F4213019F1223063
:1001A00029F1F0E0EE0FFF1FE358FF4FA591B49146
:1001B0008FB7F894EC91611126C030953E233C93A3
:1001C0008FBF08952730A9F02830C9F0243049F7AF
:1001D000809180008F7D03C0809180008F77809315
:1001E0008000DFCF84B58F7784BDDBCF84B58F7D72
:1001F000FBCF8091B0008F778093B000D2CF8091F9
:10020000B0008F7DF9CF3E2BDACF3FB7F8948091C5
:10021000130390911403A0911503B091160326B512
:10022000A89B05C02F3F19F00196A11DB11D3FBF2E
:10023000BA2FA92F982F8827BC01CD01620F711DFD
:10024000811D911D42E0660F771F881F991F4A95F7
:10025000D1F708958F929F92AF92BF92CF92DF9283
:10026000EF92FF924B015C010E9405016B017C0142
:100270000E9405016C197D098E099F09683E734033
:1002800081059105A8F321E0821A9108A108B1081F
:1002900088EEC80E83E0D81EE11CF11C8114910485
:1002A000A104B10429F7FF90EF90DF90CF90BF90A9
:1002B000AF909F908F9008950895089590910001B8
:1002C00089130BC0E8E6F0E0E4919FEF9093000102
:1002D000E13049F028F0E23061F060E00C94B900C0
:1002E00010926E00FACF90916F009D7F90936F00F7
:1002F000F4CF909170009D7F9093700091E0909367
:10030000B0009091B100987F94609093B1001092EA
:10031000B300E3CFAF92BF92CF92DF92EF92FF9202
:100320000F931F93CF93DF936C017B018B01040F1D
:10033000151FEB015E01AE18BF08C017D10759F0B9
:100340006991D601ED91FC910190F081E02DC601FB
:100350000995892B79F7C501DF91CF911F910F91F5
:10036000FF90EF90DF90CF90BF90AF900895FC0189
:10037000538D448D252F30E0842F90E0821B930B0A
:10038000541710F0CF96089501970895FC01918DB0
:10039000828D981761F0A28DAE0FBF2FB11D5D96B3
:1003A0008C91928D9F5F9F73928F90E008958FEF55
:1003B0009FEF0895FC01918D828D981731F0828D09
:1003C000E80FF11D858D90E008958FEF9FEF089560
:1003D000FC01918D228D892F90E0805C9F4F821BC4
:1003E00091098F739927089587E193E00E94E801AE
:1003F00021E0892B09F420E0822F089580E090E02D
:10040000892B29F00E94F40181110C9400000895B9
:10041000FC01A48DA80FB92FB11DA35ABF4F2C9179
:10042000848D90E001968F739927848FA689B78970
:100430002C93A089B1898C91837080648C93938D67
:10044000848D981306C00288F389E02D80818F7D0A
:1004500080830895EF92FF920F931F93CF93DF93C2
:10046000EC0181E0888F9B8D8C8D98131AC0E889F0
:10047000F989808185FF15C09FB7F894EE89FF89BF
:100480006083E889F98980818370806480839FBF5D
:1004900081E090E0DF91CF911F910F91FF90EF905D
:1004A0000895F62E0B8D10E00F5F1F4F0F7311276D
:1004B000E02E8C8D8E110CC00FB607FCFACFE889A8
:1004C000F989808185FFF5CFCE010E940802F1CF26
:1004D000EB8DEC0FFD2FF11DE35AFF4FF0829FB71C
:1004E000F8940B8FEA89FB8980818062CFCFCF930C
:1004F000DF93EC01888D8823B9F0AA89BB89E8894C
:10050000F9898C9185FD03C0808186FD0DC00FB6F1
:1005100007FCF7CF8C9185FFF2CF808185FFEDCF6F
:10052000CE010E940802E9CFDF91CF91089508958E
:1005300020917F02260F3327331F21323105ECF43F
:100540002091C802FC0190E080E0243069F082E054
:100550000895A0917F022191AC01415A5D4FA40FF3
:10056000B52FB11D2C930196861798F380917F02C9
:10057000680F60937F0280E0089581E008951092F3
:10058000C80281E08093C7021092A20261E082E17A
:100590000E94B90061E083E10E94B900E9EBF0E05C
:1005A00080818E7F808380818D7F808388E48093AB
:1005B000B80085E48093BC000895CF93DF9391E069
:1005C00090935E028823B9F0C091B800D091BA0030
:1005D0008091BC008A7B8093BC0060E082E10E9435
:1005E000B90060E083E10E94B9000E94BF02D0938D
:1005F000BA00C093B800DF91CF9108950895E091BB
:10060000FE028091FD02E81730F4F0E0E25CFD4F5D
:10061000808190E008958FEF9FEF08959091FE0202
:100620008091FD022FEF3FEF981748F4E92FF0E09B
:10063000E25CFD4F208130E09F5F9093FE02C90194
:1006400008958091FD029091FE02891B990B0895F7
:10065000CF92DF92EF92FF920F931F93CF93DF938E
:100660007C01CB018A012091CE02222389F0EB018B
:100670006B01C40ED51ECC15DD0569F06991D7015B
:10068000ED91FC910190F081E02DC7010995F3CF28
:10069000642F0E949802C801DF91CF911F910F91A2
:1006A000FF90EF90DF90CF900895CF93DF931F924C
:1006B000CDB7DEB769832091CE022223F9F02091D5
:1006C000FB02203258F021E030E0FC01338322832A
:1006D00090E080E00F90DF91CF9108958091FC022F
:1006E000E82FF0E0E153FD4F998190838F5F809375
:1006F000FC028093FB0281E090E0ECCF61E0CE0150
:1007000001960E949802F7CFCF92DF92EF92FF926C
:100710000F931F93CF93DF93FC01C48121E02093BB
:10072000CE02C093EF021092FC021092FB0283856E
:10073000682B84EB93E00E945503D091FB02D132E9
:1007400008F092C00E9405016B017C018091C802F3
:10075000811165C082E08093C80281E08093C70266
:100760008FEF8093C6021092C502D093C402AFEC03
:10077000B2E0E4EAF2E080E0D81385C01092A30270
:100780008091A302CC0FC82BC093A3028091A20238
:10079000813009F07CC01092A2020E9405016B0119
:1007A0007C018091A3028093BB008091CA0290914A
:1007B000CB02A091CC02B091CD02892B8A2B8B2B3E
:1007C00099F00E9405010091CA021091CB0220917C
:1007D000CC023091CD026C197D098E099F09061754
:1007E000170728073907E0F18091BC0083FDD9CFB6
:1007F00085EC8093BC000E9405016B017C01809117
:10080000C802823009F445C08091C6028F3F61F171
:100810008091C602803241F18091C60225C080914C
:10082000CA029091CB02A091CC02B091CD02892B4B
:100830008A2B8B2B09F48ACF0E9405010091CA02F2
:100840001091CB022091CC023091CD026C197D0920
:100850008E099F09061717072807390708F076CF72
:100860008091C9020E94DD021092FC021092FB02EC
:100870001092CE02DF91CF911F910F91FF90EF90D8
:10088000DF90CF9008959D9191938F5F75CF85EE06
:10089000B0CF8091CA029091CB02A091CC02B091CE
:1008A000CD02892B8A2B8B2B09F4A9CF0E9405013D
:1008B0000091CA021091CB022091CC023091CD025E
:1008C0006C197D098E099F09061717072807390734
:1008D00008F095CFC5CF90E080E00895CF93DF93E7
:1008E000EC0161E0019709F060E088E00E94B90046
:1008F00061E0C230D10509F060E089E00E94B900F2
:1009000061E0C330D10509F060E08AE00E94B900DF
:1009100061E0C430D10509F060E08BE00E94B900CD
:10092000249709F0DCC0809100018C3029F08F3FC2
:1009300059F1DF91CF910895E8E6F0E0C491C7FD49
:10094000F8CF8CE00E948900CC2309F48AC0C23021
:1009500009F09EC08091B100887F83608093B100D0
:1009600089EF8093B3008FEF9FEFDC018093F30258
:100970009093F402A093F502B093F6028091700078
:10098000826080937000D5CF8CE080930001E8E610
:10099000F0E0C491CF3F69F2C13019F148F0C230A4
:1009A00009F43DC0C7FDC5CF8CE00E948900CFCFC0
:1009B00014BC15BC84B5826084BD85B5816085BDDD
:1009C000EDE9F0E0E491F0E0EE0FFF1FE358FF4F98
:1009D00085919491E1EBF0E0E491E0933502C0E081
:1009E000B0CF1092800010928100809181008860C9
:1009F0008093810080918100816080938100EDE986
:100A0000F0E0E491F0E0EE0FFF1FE358FF4F859117
:100A10009491E1EBF0E0E491E093340292CF1092F4
:100A2000B0001092B1008091B00082608093B0005D
:100A30008091B10081608093B100EDE9F0E0E49134
:100A4000F0E0EE0FFF1FE358FF4F859194919093D4
:100A5000F1028093F002E1EBF0E0E491E093F20226
:100A600070CF85B5887F836085BD8CE787BD8FEFAC
:100A70009FEFDC0180933A0290933B02A0933C02EB
:100A8000B0933D0280916E00826080936E0051CFE2
:100A9000C130E9F480918100887F8160809381007A
:100AA0008FE39FE190938900809388008FEF9FEF01
:100AB000DC018093360290933702A0933802B09302
:100AC000390280916F00826080936F0032CFC23014
:100AD00021F0C1112ECF8FE3C9CF8FE342CF8CE03D
:100AE000DF91CF910C945E010F931F93CF938C01F4
:100AF000C62F0E9484036C2F6460C8010E94840387
:100B00006C2F6B7FC8010E94840383EC90E00197F7
:100B1000F1F7CF911F910F9108950F931F93CF93EA
:100B2000DF938C01D62FC42F607F642B0E94740545
:100B300080E1D89FB00111246C2BC801DF91CF91C7
:100B40001F910F910C94740540E061E080EC93E0FC
:100B50000E948D058BE39FE10197F1F70895CF93F4
:100B6000DF93CDB7DEB728970FB6F894DEBF0FBE80
:100B7000CDBF98E0EDE4F1E0DE01119601900D9219
:100B80009A95E1F79091C803961708F46FEF262F16
:100B900030E0220F331F41E050E04C0F5D1F240F67
:100BA000351FF9016081680F606840E080EC93E0D8
:100BB00028960FB6F894DEBF0FBECDBFDF91CF9160
:100BC0000C948D0541E00E948D0581E090E0089530
:100BD0000F931F93CF93DF938B0198E0899FB00110
:100BE0001124606440E080EC93E00E948D05E801F0
:100BF000085F1F4F699180EC93E00E94E205C017E7
:100C0000D107C1F7DF91CF911F910F910895FB019B
:100C100001900020E9F73197AF01461B570BDC012B
:100C2000ED91FC910280F381E02D09948F929F92C7
:100C3000AF92BF920F931F93CF93DF93CDB7DEB7E1
:100C4000A1970FB6F894DEBF0FBECDBF19A24230F8
:100C500008F44AE08E010F5D1F4F842E912CB12CB9
:100C6000A12CA50194010E942313E62FB901CA010A
:100C7000EA3004F5E05DD801EE938D01232B242B9F
:100C8000252B79F790E080E0109729F0BD0187E1EE
:100C900093E00E940706A1960FB6F894DEBF0FBE40
:100CA000CDBFDF91CF911F910F91BF90AF909F90DB
:100CB0008F900895E95CDFCF4F925F926F927F92A1
:100CC0008F929F92AF92BF92CF92DF92EF92FF925C
:100CD0000F931F93CF936B017C01742EAC019B018A
:100CE0000E94B41465E871E0811126C046015701E5
:100CF000E894B7F82FEF3FEF4FE75FE7C501B40186
:100D00000E94B41481110CC02FEF3FEF4FE75FE753
:100D1000C501B4010E949B1169E871E0181664F0E6
:100D20002FEF3FEF4FE75FE4C701B6010E94691460
:100D30001816ACF46DE871E087E193E0CF911F9154
:100D40000F91FF90EF90DF90CF90BF90AF909F906A
:100D50008F907F906F905F904F900C9407062FEFCD
:100D60003FEF4FE75FECC701B6010E949B1187FD83
:100D7000E1CF20E030E0A901C701B6010E949B113C
:100D800010E000E087FF0AC06DE287E193E00E9477
:100D90002A028C01F7FAF094F7F8F094C0E060E0D2
:100DA00070E080E09FE37C1641F020E030E040E21C
:100DB00051E40E94C113CF5FF6CFA70196010E94B4
:100DC00055132B013C010E943A144B015C014AE08F
:100DD0000E9416067C01E00EF11ECC23C1F1C50174
:100DE000B4010E94A0119B01AC01C301B2010E9499
:100DF00054134B015C016EE287E193E00E942A02EA
:100E0000E80EF91EC15018F120E030E040E251E454
:100E1000C501B4010E9401122B013C010E943A1449
:100E20004B01B12CA12C4AE0C501B4010E94160669
:100E3000E80EF91EC501B4010E94A0119B01AC018E
:100E4000C301B2010E9454134B015C01DBCFC70107
:100E5000CF911F910F91FF90EF90DF90CF90BF90B7
:100E6000AF909F908F907F906F905F904F9008957C
:100E70000C940706CF93DF93DC0114962D913C91DF
:100E80001597232B79F0FB01CD91DC916081718165
:100E9000CE010E94D716009729F08C1B9D0BDF9185
:100EA000CF9108958FEF9FEFFACFAF92BF92CF927D
:100EB000DF92EF92FF920F931F93CF93DF93DC01AA
:100EC000CD90DC901197C114D10439F01496CD91D6
:100ED000DC918C017601209761F4DF91CF911F9115
:100EE0000F91FF90EF90DF90CF90BF90AF9008955B
:100EF00075015701BFEFAB1ABB0AF7018081082EBD
:100F0000000C990B0E949211892B91F72197CC0D1F
:100F1000DD1D8881082E000C990B0E949211892BEF
:100F200029F0CE15DF0510F02197F3CFAE014F5F0A
:100F30005F4F4E195F09D80115965C934E93149735
:100F4000CE14DF0420F4B701C6010E94BE16D801FA
:100F5000ED91FC91119714968D919C91E80FF91FDA
:100F60001082BBCFCF93DF93FC01C081D18120974A
:100F700061F08991882349F0082E000C990B0E949A
:100F8000B616FE0131978083F4CFDF91CF9108959B
:100F90000F931F93CF93DF93EC0188819981009782
:100FA00059F02A813B812617370730F081E0DF9125
:100FB000CF911F910F9108958B016F5F7F4F0E941A
:100FC000F915009759F0998388831B830A832C8134
:100FD0003D81232B59F7FC011082E8CF80E0E7CF59
:100FE000EF92FF920F931F93CF93DF9361157105DB
:100FF00041F480E0DF91CF911F910F91FF90EF902E
:10100000089541155105B1F07B01EC010C811D8162
:10101000040F151FB8010E94C807882351F32881C7
:1010200039818C819D81B701820F931F0E94D01658
:101030001D830C8381E0DECFCF93DF93EC018881A9
:101040009981009711F00E947015198218821D82F3
:101050001C821B821A82DF91CF910895EF92FF923A
:101060000F931F93CF93DF93EC017B018A01BA01A9
:101070000E94C80781110BC0CE010E941C08CE013E
:10108000DF91CF911F910F91FF90EF9008951D83F5
:101090000C83B701888199810E94D016F0CFFB01A3
:1010A00001900020E9F73197AF01461B570B0C94D4
:1010B0002E08FB01DC0111961C921E9213961C92C5
:1010C0001E92129715961C921E92149786179707D8
:1010D00049F0608171816115710521F0448155816C
:1010E0000C942E080895FC01118210821382128242
:1010F00015821482FB0101900020E9F73197AF01BE
:10110000461B570B0C942E08AF92BF92CF92DF92E2
:10111000EF92FF920F931F93CF93DF936C015B01CC
:101120007A0189012417350720F48F2D7901042FC6
:10113000182F62E372E0C6010E947308D50114966D
:10114000CD91DC91EC16FD06E0F40C171D0708F4B8
:10115000E801D501ED91FC911197EC0FFD1F108175
:1011600010826D917C916E0D7F1DC6016115710518
:10117000A1F00E944F08F50180819181C80FD91F0D
:101180001883C601DF91CF911F910F91FF90EF90CF
:10119000DF90CF90BF90AF9008950E941C08EBCFD6
:1011A000FC0180819181009711F00C9470150895D5
:1011B000CF92DF92FF920F931F93CF93DF9300D0D4
:1011C00000D000D0CDB7DEB76C018B0160E080E0CD
:1011D0000E94AF0561E971E0CE0101960E9473089B
:1011E000F6014481558160817181CE0101960E9492
:1011F000F007811104C0CE0101960E941C084D81A8
:101200005E8169817A8180EC93E00E948A01CE013F
:1012100001960E94D00861E080E00E94AF0520E0C6
:1012200030E0A90117FD0AC098010536110514F038
:1012300024E630E0032E000C440B550BAFE0B0E089
:101240000E94E11224E630E040E050E00E94C21229
:101250006901A7E0B0E00E94E1122FE030E040E039
:1012600050E00E94C212F22E10E000E0C016D1063B
:10127000C4F06F2D80EC93E00E94E2050F5F1F4FDA
:101280000031110599F726960FB6F894DEBF0FBE10
:10129000CDBFDF91CF911F910F91FF90DF90CF9045
:1012A00008956EE971E080EC93E00E943807E6CF84
:1012B00085ED8093BC008091CA029091CB02A091F1
:1012C000CC02B091CD020796A11DB11D23E0B695C9
:1012D000A795979587952A95D1F72091BC0024FD75
:1012E00003C01092C80208954091CA025091CB02E7
:1012F0006091CC027091CD02452B462B472B69F3B0
:101300000097A105B10541F02AE22A95F1F700C046
:101310000197A109B109E1CF8091C9020C94DD02C6
:101320001F920F920FB60F9211242F933F938F931A
:101330009F93AF93BF9380910F0390911003A0915F
:101340001103B091120330910E0323E0230F2D37C8
:1013500058F50196A11DB11D20930E0380930F0334
:1013600090931003A0931103B09312038091130381
:1013700090911403A0911503B09116030196A11D3D
:10138000B11D8093130390931403A0931503B0939E
:101390001603BF91AF919F918F913F912F910F9025
:1013A0000FBE0F901F90189526E8230F0296A11DDF
:1013B000B11DD2CF1F920F920FB60F9211242F930F
:1013C0003F934F935F936F937F938F939F93AF93CD
:1013D000BF93EF93FF938091F3029091F402A09159
:1013E000F502B091F602892B8A2B8B2BD1F19091CB
:1013F000F202E091F002F091F1028081892780836E
:101400008091F3029091F402A091F502B091F6025E
:10141000181619061A061B069CF48091F302909187
:10142000F402A091F502B091F6020197A109B10969
:101430008093F3029093F402A093F502B093F60226
:10144000FF91EF91BF91AF919F918F917F916F919C
:101450005F914F913F912F910F900FBE0F901F9072
:101460001895809100010E945E01EACF1F920F92B1
:101470000FB60F9211242F933F934F935F936F9367
:101480007F938F939F93AF93BF93EF93FF9387E1E6
:1014900093E00E940802FF91EF91BF91AF919F915D
:1014A0008F917F916F915F914F913F912F910F900D
:1014B0000FBE0F901F9018951F920F920FB60F92AC
:1014C00011242F938F939F93EF93FF93E091270322
:1014D000F09128038081E0912D03F0912E0382FD8D
:1014E0001BC09081809130038F5F8F7320913103F7
:1014F000821741F0E0913003F0E0E95EFC4F958FF8
:1015000080933003FF91EF919F918F912F910F90D6
:101510000FBE0F901F9018958081F4CF1F920F92ED
:101520000FB60F9211242F933F934F935F936F93B6
:101530007F938F939F93AF93BF93EF93FF9380918C
:10154000B900887F803609F44AC0F0F5883209F482
:10155000A7C018F5803109F49BC0B8F4882309F4BA
:10156000F9C0883009F494C0FF91EF91BF91AF9119
:101570009F918F917F916F915F914F913F912F91AB
:101580000F900FBE0F901F901895883109F488C0F6
:10159000803251F78093C60214C0803409F49DC094
:1015A00040F48033B9F38833F9F68093C60285ECB2
:1015B000B0C0803509F485C0883509F496C08834F8
:1015C00099F60E945809D0CF883909F48CC038F5B3
:1015D000883729F050F4883611F0803729F683E0F7
:1015E0008093C8021092A10257C0883809F47BC0CA
:1015F000803919F0803809F0B7CF8091A10280328C
:1016000008F071C0E091A10281E08E0F8093A102E9
:101610008091BB00F0E0EF57FD4F80833DC0803BE1
:1016200039F0E0F4803A09F479C0883A09F09CCFA7
:1016300084E08093C8021092800210927F02E091B1
:10164000F902F091FA02099580917F0281110FC091
:1016500081E080937F0210925F0209C0803C09F410
:10166000A6CF883C09F4A3CF883B09F07DCFE09159
:10167000800281E08E0F80938002F0E0E15AFD4FFE
:1016800080818093BB009091800280917F0229C06D
:101690008091A3028093BB0085EC8093BC0064CF53
:1016A0009091C5028091C402981758F5E091C50247
:1016B00081E08E0F8093C502F0E0EC55FD4F8081F4
:1016C000E9CFE091C50281E08E0F8093C502809141
:1016D000BB00F0E0EC55FD4F80839091C5028091F6
:1016E000C4029817C8F285E8D8CFE091C50281E01E
:1016F0008E0F8093C5028091BB00F0E0EC55FD4F4A
:1017000080838091C70281115CCF81E08093A20227
:1017100084EA8093BC001092C80226CF85EC8093A7
:10172000BC001092C8028091A102803230F4E09196
:10173000A102F0E0EF57FD4F10826091A10270E02E
:10174000E091F702F091F80281E892E00995109299
:10175000A1020ACF1092C60234CFE7E1F3E0138270
:10176000128288EE93E0A0E0B0E084839583A683A4
:10177000B78329E531E03183208325EC30E03587DC
:10178000248724EC30E03787268720EC30E0318B4B
:10179000208B21EC30E0338B228B22EC30E0358B38
:1017A000248B26EC30E0378B268B118E128E138E15
:1017B000148EE4EBF3E01382128284839583A68374
:1017C000B7838BE691E09183808368E971E082EDD5
:1017D00093E00E94730862E372E08CEC93E00E9455
:1017E0007308E0ECF3E0138212828DE791E09183BD
:1017F000808387E2848380E1818782E08287138609
:101800000895CF93DF93CDB7DEB7C65BD1090FB68E
:10181000F894DEBF0FBECDBF789484B5826084BDDE
:1018200084B5816084BD85B5826085BD85B58160E4
:1018300085BD80916E00816080936E001092810062
:10184000809181008260809381008091810081601D
:1018500080938100809180008160809380008091DE
:10186000B10084608093B1008091B000816080936A
:10187000B00080917A00846080937A0080917A0031
:10188000826080937A0080917A00816080937A00F0
:1018900080917A00806880937A001092C100E09174
:1018A0002703F091280382E08083E0912303F091E5
:1018B00024031082E0912503F091260380E18083C8
:1018C00010922F03E0912B03F0912C0386E080838C
:1018D000E0912903F0912A03808180618083E09167
:1018E0002903F0912A03808188608083E091290395
:1018F000F0912A03808180688083E0912903F09130
:101900002A0380818F7D80831092FE021092FD0257
:101910001092FC021092FB020E94BF028CE591E043
:101920009093FA028093F9028DE591E09093F8028A
:101930008093F7021092C5038091CA03823018F099
:1019400098E09093C5038093C80362E370E080E061
:1019500090E00E942A016091CB0380EC93E00E940A
:10196000840368EE73E080E090E00E942A0160E367
:1019700080EC93E00E9474050BE416E4C801019723
:10198000F1F760E380EC93E00E947405C8010197D1
:10199000F1F760E380EC93E00E94740583E592E048
:1019A0000197F1F760E280EC93E00E94740560918A
:1019B000C503606240E080EC93E00E948D0584E006
:1019C0008093C60340E06CE080EC93E00E948D05BC
:1019D0000E94A40582E08093C70340E066E080ECAB
:1019E00093E00E948D0540E062E080EC93E00E946D
:1019F0008D058BE39FE10197F1F788E08093CB039E
:101A000060E080EC93E00E94840369E371E080E091
:101A10000E94E80561E371E081E00E94E80569E267
:101A200071E082E00E94E80561E271E083E00E94DB
:101A3000E80569E171E084E00E94E80561E171E098
:101A400085E00E94E80569E071E086E00E94E80513
:101A500061E071E087E00E94E80588E00E9489006B
:101A600089E00E9489008AE00E9489008BE00E9440
:101A700089008CE00E94890061E088E00E94B90042
:101A800066E970E080E090E00E942A0160E088E072
:101A90000E94B90066E970E080E090E00E942A01AF
:101AA00060E081E00E94AF0560EA71E080EC93E0C5
:101AB0000E94380761E082E00E94AF056FEA71E0A2
:101AC00080EC93E00E9438076CED75E080E090E0D8
:101AD0000E942A010E94A4056CEB71E080EC93E067
:101AE0000E94380761E080E00E94AF0500E110E04D
:101AF000C12CD12C76010E94A800092E000CAA0B43
:101B0000BB0BC80ED91EEA1EFB1E6BEC71E080EC0D
:101B100093E00E94380764E670E080E090E00E9465
:101B20002A010150110939F7C701B6010E94A2111B
:101B300020E030E040E85DE30E940112609303037F
:101B40007093040380930503909306030E94A405F9
:101B50008E010F551F4FBB24B39487E193E00E9481
:101B6000E801181619060CF076C187E193E00E948F
:101B7000C6018D3091F38A30C9F089831A8241E021
:101B800050E0BE016F5F7F4F8CEC93E00E94F00746
:101B90008091D0039091D10389379105F0F262E3EF
:101BA00072E08CEC93E00E944F08D7CF6CEC73E0AE
:101BB000CE0183559F4F0E94590862E372E08CEC7E
:101BC00093E00E944F08CE0183559F4F0E94550716
:101BD000CF54DF4F88819981C15BD040892B09F4B4
:101BE0002FC16DEC71E0CE0101960E947308BE0119
:101BF0006F5F7F4FCE0183559F4F0E943A077C0154
:101C0000CE0101960E94D008F7FC1AC125E0E20E31
:101C1000F11C63ED71E0CE0101960E947308CF5470
:101C2000DF4F88819981C15BD040E816F90608F042
:101C30006CC0C355DF4FC880D980CD5AD040698170
:101C40007A81C6018E0D9F1D0E94D716009709F458
:101C50005CC0FC01EC19FD096F01CE0101960E94E8
:101C6000D0089601D7FE06C0CF54DF4F28813981B6
:101C7000C15BD040A701BE0163557F4FCE0189559E
:101C80009F4F0E948408CE0189559F4F0E9455079F
:101C9000CE0189559F4F0E94B207BE0169557F4F03
:101CA000CE0101960E945908CE0101960E94550767
:101CB000CE0101960E94B2078D819E81892B09F188
:101CC000E980FA8065ED71E0C7010E94C716892B93
:101CD000C1F06AED71E0C7010E94C716892BC9F0F7
:101CE00061EE71E0C7010E94C716892B61F169EEB0
:101CF00071E0C7010E94C71664E0E62EF12C892B23
:101D000059F0EE24E394F12C07C0CC24CA94DC2CC7
:101D1000A4CF52E0E52EF12CCE0101960E94D0080E
:101D2000BE0169557F4FC8010E945908F80184819E
:101D30009581079760F441E050E06EE971E0C801D9
:101D40000E94F007F3CF43E0E42EF12CE5CFC090E2
:101D50000703D090080361EF71E0CE0101960E9465
:101D60007308BE016F5F7F4FCE0183559F4F0E9466
:101D70003A074C01CE0101960E94D00897FC2FC073
:101D8000CF54DF4F28813981C15BD040A4014A5F25
:101D90005F4FBE0163557F4FCE0101960E948408BC
:101DA000CE0101960E94550789819A81009779F0AA
:101DB0000E945611D12CC12C97FD0DC065367105BE
:101DC000810591053CF084E6C82ED12C04C060E06A
:101DD00070E0CB016B01CE0101960E94D008F801A2
:101DE000608171816115710589F14481558182EDB0
:101DF00093E00E942E08F0924601E0924501D092B5
:101E00000803C0920703B0920D032FB7F894809196
:101E10000F0390911003A0911103B09112032FBFF3
:101E20008093090390930A03A0930B03B0930C03D0
:101E3000C8010E94D008CE0189559F4F0E94D0084A
:101E4000CE0183559F4F0E94D00887CE82ED93E04C
:101E50000E941C08D0CF80910D03882309F448C04C
:101E60002FB7F89480910F0390911003A091110364
:101E7000B09112032FBF4091090350910A03609162
:101E80000B0370910C03841B950BA60BB70B893BBE
:101E90009B40A105B10560F58091450190914601F7
:101EA0000E946E04E0900703F090080362ED73E077
:101EB000CE0101960E945908B701CE0101960E94F9
:101EC000D808CE0101960E94D00862E370E080E05D
:101ED00090E00E942A0180E090E0892B09F43BCE3B
:101EE0000E94F401882309F436CE0E94000033CE0C
:101EF00010920D039E012F5F3F4F69017901812CE4
:101F0000912C54010E94A8004090030350900403B8
:101F10006090050370900603BC01990F880B990B24
:101F20000E94A211A30192010E94541320E030E00C
:101F3000A9010E94691418160CF06CC10E94A80037
:101F4000BC01990F880B990B0E94A211A301920169
:101F50000E945413F70161937193819391937F01D0
:101F60009B01AC01C501B4010E9455134B015C01FA
:101F700062E070E080E090E00E942A010E151F05EB
:101F800009F0C0CF20E030E040E252E4C501B401E6
:101F90000E94C1132B013C01812C912C5401F601AC
:101FA00061917191819191916F01A30192010E94C0
:101FB00054139B01AC010E9401129B01AC01C501AD
:101FC000B4010E9455134B015C01EC14FD0439F778
:101FD00020E030E040E252E40E94C113CD54DF4FD4
:101FE000688379838A839B83C35BD0400E94741487
:101FF0006B017C012AE939E949E55FE3C301B201DC
:102000000E9401124B015C012AE939E949E15EE3D2
:10201000C701B6010E9401129B01AC01C501B401C8
:102020000E9455134B015C01209141013091420106
:1020300040914301509144010E946914181644F4E0
:102040008092410190924201A0924301B0924401DA
:1020500022E538EB4EE75FE3609141017091420168
:1020600080914301909144010E9401126B017C0117
:1020700020E030E040E252E40E949B1187FF06C05E
:10208000C12CD12C20E2E22E22E4F22EC09241019A
:10209000D0924201E0924301F0924401A7019601DF
:1020A000C501B4010E94C11320E030E048EC52E4C5
:1020B0000E9401126B017C0120E030E0A9010E9426
:1020C0009B1187FDB5C020E030E048EC52E4C70129
:1020D000B6010E946914181634F4C12CD12C98EC66
:1020E000E92E92E4F92E2091FF02309100034091F5
:1020F000010350910203C501B4010E94691418162E
:1021000044F48092FF0290920003A0920103B092E7
:10211000020362E372E0CE0189559F4F0E9473086B
:1021200020E030E048EC51E4C701B6010E949B1169
:1021300087FF82C068E971E0CE0189559F4F0E94F8
:102140004F0881E090E00E946E04BE0169557F4F08
:10215000C8010E945908C701B6010E943314C80182
:102160000E94D808C8010E94D00860E072E087E1B0
:1021700093E00E94380742E0C301B2010E945C066E
:102180006CE072E087E193E00E94380742E0CD54B2
:10219000DF4F688179818A819B81C35BD0400E9437
:1021A0005C0664E172E087E193E00E94380742E058
:1021B000C501B4010E945C066EE172E087E193E024
:1021C0000E94380742E0C701B6010E945C0667E240
:1021D00072E087E193E00E9438076091FF027091FE
:1021E0000003809101039091020342E00E945C068B
:1021F00060E372E087E193E00E94070662E370E02B
:1022000080E090E00E942A01CE0189559F4F0E94F4
:10221000D00861CE0E94A800BC01990F880B990BD1
:102220000E94A211A30192010E945413905892CED1
:10223000C12CD12C760157CF20E030E048E452E4A5
:10224000C701B6010E949B1187FF0AC068EF71E0C9
:10225000CE0189559F4F0E944F0882E090E073CFD6
:1022600020E030E046E952E4C701B6010E949B112C
:1022700087FF0AC061EE71E0CE0189559F4F0E9431
:102280004F0883E090E05FCF69EE71E0CE018955A1
:102290009F4F0E944F0884E090E055CF8CEC93E074
:1022A0000E94D00882ED93E00C94D0081F93FC01AB
:1022B00099278827BC01E89411911032E9F319306D
:1022C00010F01E30C8F31B3251F01D3249F46894EF
:1022D00006C00E947D11610F711D811D911D11911C
:1022E00010531A30B0F33EF4909580957095619537
:1022F0007F4F8F4F9F4F1F910895592F482F372F92
:10230000262F660F771F881F991F660F771F881F5C
:10231000991F620F731F841F951F660F771F881FF9
:10232000991F089591110C946E12803219F0895002
:102330008550C8F708950E94DD1108F481E00895E2
:10234000E89409C097FB3EF490958095709561954F
:102350007F4F8F4F9F4F9923A9F0F92F96E9BB2705
:102360009395F695879577956795B795F111F8CF81
:10237000FAF4BB0F11F460FF1BC06F5F7F4F8F4FEC
:102380009F4F16C0882311F096E911C0772321F0E2
:102390009EE8872F762F05C0662371F096E8862F7A
:1023A00070E060E02AF09A95660F771F881FDAF7D1
:1023B000880F9695879597F90895990F0008550FFE
:1023C000AA0BE0E8FEEF16161706E807F907C0F0BB
:1023D00012161306E407F50798F0621B730B840BC3
:1023E000950B39F40A2661F0232B242B252B21F49D
:1023F00008950A2609F4A140A6958FEF811D811D3D
:1024000008950E9414120C9488120E947A1238F0D7
:102410000E94811220F0952311F00C9471120C94FB
:10242000771211240C94BC120E94991270F3959F9C
:10243000C1F3950F50E0551F629FF001729FBB27BB
:10244000F00DB11D639FAA27F00DB11DAA1F649F57
:102450006627B00DA11D661F829F2227B00DA11D0A
:10246000621F739FB00DA11D621F839FA00D611D90
:10247000221F749F3327A00D611D231F849F600DB1
:10248000211D822F762F6A2F11249F5750409AF0DA
:10249000F1F088234AF0EE0FFF1FBB1F661F771F66
:1024A000881F91505040A9F79E3F510580F00C9431
:1024B00071120C94BC125F3FE4F3983ED4F38695FE
:1024C00077956795B795F795E7959F5FC1F7FE2BD1
:1024D000880F911D9695879597F9089599278827D4
:1024E000089597F99F6780E870E060E008959FEF96
:1024F00080EC089500240A9416161706180609069B
:10250000089500240A941216130614060506089569
:10251000092E0394000C11F4882352F0BB0F40F4F1
:10252000BF2B11F460FF04C06F5F7F4F8F4F9F4F31
:10253000089557FD9058440F551F59F05F3F71F0B3
:102540004795880F97FB991F61F09F3F79F087951A
:102550000895121613061406551FF2CF4695F1DFA3
:1025600008C0161617061806991FF1CF8695710533
:10257000610508940895E894BB2766277727CB0167
:1025800097F90895052E97FB1EF400940E94D91226
:1025900057FD07D00E94231307FC03D04EF40C9480
:1025A000D91250954095309521953F4F4F4F5F4F31
:1025B000089590958095709561957F4F8F4F9F4FAF
:1025C00008950E944513A59F900DB49F900DA49F60
:1025D000800D911D112408952F923F924F925F928A
:1025E0006F927F928F929F92AF92BF92CF92DF9223
:1025F000EF92FF920F931F93CF93DF93CDB7DEB788
:10260000CA1BDB0B0FB6F894DEBF0FBECDBF09941B
:102610002A88398848885F846E847D848C849B8472
:10262000AA84B984C884DF80EE80FD800C811B8180
:10263000AA81B981CE0FD11D0FB6F894DEBF0FBEAF
:10264000CDBFED010895A1E21A2EAA1BBB1BFD010F
:102650000DC0AA1FBB1FEE1FFF1FA217B307E40781
:10266000F50720F0A21BB30BE40BF50B661F771FD9
:10267000881F991F1A9469F76095709580959095B9
:102680009B01AC01BD01CF010895A29FB001B39F92
:10269000C001A39F700D811D1124911DB29F700D6B
:1026A000811D1124911D08955058BB27AA270E940F
:1026B0006C130C9488120E947A1238F00E948112D6
:1026C00020F039F49F3F19F426F40C9477120EF49D
:1026D000E095E7FB0C947112E92F0E94991258F3D0
:1026E000BA17620773078407950720F079F4A6F5F7
:1026F0000C94BB120EF4E0950B2EBA2FA02D0B01FB
:10270000B90190010C01CA01A0011124FF27591B36
:1027100099F0593F50F4503E68F11A16F040A22F3C
:10272000232F342F4427585FF3CF469537952795AD
:10273000A795F0405395C9F77EF41F16BA0B620BAC
:10274000730B840BBAF09150A1F0FF0FBB1F661FF3
:10275000771F881FC2F70EC0BA0F621F731F841F36
:1027600048F4879577956795B795F7959E3F08F05C
:10277000B0CF9395880F08F09927EE0F979587951E
:1027800008950E94D5130C9488120E94811258F06B
:102790000E947A1240F029F45F3F29F00C947112E4
:1027A00051110C94BC120C9477120E94991268F388
:1027B0009923B1F3552391F3951B550BBB27AA27FA
:1027C00062177307840738F09F5F5F4F220F331F34
:1027D000441FAA1FA9F335D00E2E3AF0E0E832D0FC
:1027E00091505040E695001CCAF72BD0FE2F29D0FF
:1027F000660F771F881FBB1F261737074807AB07D1
:10280000B0E809F0BB0B802DBF01FF2793585F4F45
:102810003AF09E3F510578F00C9471120C94BC1262
:102820005F3FE4F3983ED4F3869577956795B79527
:10283000F7959F5FC9F7880F911D9695879597F932
:102840000895E1E0660F771F881FBB1F62177307AB
:102850008407BA0720F0621B730B840BBA0BEE1FC0
:1028600088F7E09508950E943A146894B1110C9489
:10287000BC1208950E94A11288F09F5798F0B92FBA
:102880009927B751B0F0E1F0660F771F881F991FA5
:102890001AF0BA95C9F714C0B13091F00E94BB127A
:1028A000B1E008950C94BB12672F782F8827B85F8A
:1028B00039F0B93FCCF3869577956795B395D9F7FD
:1028C0003EF490958095709561957F4F8F4F9F4F07
:1028D00008950E94DD1108F48FEF089519F416F49D
:1028E0000C9477120C94B9140E94A112B8F3992396
:1028F000C9F3B6F39F57550B87FF0E94C7140024F6
:10290000A0E640EA900180585695979528F4805C9F
:10291000660F771F881F20F026173707480730F407
:10292000621B730B840B202931294A2BA69517941F
:102930000794202531254A2758F7660F771F881FEF
:1029400020F026173707480730F4620B730B840B0F
:10295000200D311D411DA09581F7B901842F91589B
:10296000880F9695879508950E94DD11880B990B25
:1029700008959F3F31F0915020F4879577956795A2
:10298000B795880F911D9695879597F90895915061
:102990005040660F771F881FD2F70895EE0FFF1F74
:1029A0000590F491E02D09940F931F93CF93DF933B
:1029B0008230910510F482E090E0E091DA03F0912A
:1029C000DB0330E020E0B0E0A0E0309799F421157F
:1029D000310509F44AC0281B390B24303105D8F5DC
:1029E0008A819B816115710589F1FB019383828343
:1029F000FE0111C04081518102811381481759079E
:102A0000E0F04817590799F4109761F012960C936B
:102A1000129713961C933296CF01DF91CF911F919D
:102A20000F9108950093DA031093DB03F4CF21157F
:102A3000310551F04217530738F0A901DB019A0123
:102A4000BD01DF01F801C1CFEF01F9CF9093DB03A6
:102A50008093DA03CDCFFE01E20FF31F81939193B0
:102A60002250310939832883D7CF2091D803309160
:102A7000D903232B41F42091490130914A0130932D
:102A8000D9032093D80320914701309148012115A3
:102A9000310541F42DB73EB740914B0150914C01A7
:102AA000241B350BE091D803F091D903E217F3070B
:102AB000A0F42E1B3F0B2817390778F0AC014E5FAE
:102AC0005F4F2417350748F04E0F5F1F5093D9030F
:102AD0004093D803819391939FCFF0E0E0E09CCFA7
:102AE000CF93DF930097E9F0FC01329713821282B3
:102AF000A091DA03B091DB03ED0130E020E0109704
:102B0000A1F420813181820F931F2091D80330914D
:102B1000D9032817390709F061C0F093D903E0936E
:102B2000D803DF91CF910895EA01CE17DF07E8F5CA
:102B30004A815B819E0141155105B1F7E901FB8393
:102B4000EA8349915991C40FD51FEC17FD0761F431
:102B5000808191810296840F951FE9019983888372
:102B6000828193819B838A83F0E0E0E012968D91CD
:102B70009C9113970097B9F52D913C911197CD0138
:102B80000296820F931F2091D8033091D903281702
:102B9000390739F6309751F51092DB031092DA03BA
:102BA000B093D903A093D803BCCFD383C283408111
:102BB0005181840F951FC817D90761F44E5F5F4F8D
:102BC00088819981480F591F518340838A819B8155
:102BD000938382832115310509F0B0CFF093DB0395
:102BE000E093DA039ECFFD01DC01C0CF1382128295
:102BF000D7CFB0E0A0E0EFEFF5E10C94EE128C013E
:102C0000009751F4CB010E94D4148C01C801CDB7B8
:102C1000DEB7E0E10C940A13FC01E60FF71F9C01FC
:102C200022503109E217F30708F49DC0D901CD9174
:102C3000DC911197C617D70798F0C530D10530F34E
:102C4000CE0104978617970708F3C61BD70B229768
:102C5000C193D1936D937C93CF010E947015D6CF11
:102C60005B01AC1ABD0A4C018C0E9D1EA091DA03CB
:102C7000B091DB03512C412CF12CE12C109731F554
:102C80008091D8039091D9038815990509F05CC00B
:102C90004616570608F058C08091470190914801A8
:102CA000009741F48DB79EB740914B0150914C0174
:102CB000841B950BE817F90708F055C0F093D9036A
:102CC000E093D803F90171836083A0CF8D919C912B
:102CD000119712966C90129713967C901397A815E3
:102CE000B90559F56C0142E0C40ED11CCA14DB04CD
:102CF00020F1AC014A195B09DA011296159780F0B0
:102D00006282738251834083D9016D937C93E11475
:102D1000F10471F0D7011396FC93EE93129776CFDE
:102D200022968C0F9D1FF90191838083F301EFCFD1
:102D3000F093DB03E093DA0369CF4816590608F4F1
:102D40002C017D01D3019ACFCB010E94D4147C01C8
:102D5000009749F0AE01B8010E94BE16C8010E945A
:102D60007015870153CF10E000E050CF9111089506
:102D700081568A5108F4805285580895FB01DC0180
:102D800002C001900D9241505040D8F70895FB01C8
:102D9000DC018D91019080190110D9F3990B0895F0
:102DA000FB01DC0101900D920020E1F70895FB0189
:102DB00051915523A9F0BF01DC014D9145174111F7
:102DC000E1F759F4CD010190002049F04D914015F3
:102DD0004111C9F3FB014111EFCF81E090E0019770
:102DE000089510E0CEE5D0E004C0FE010E94CE14AC
:102DF0002196CF35D107C9F7F894FFCFFF1F1F1FCA
:102E00001F1F1F1F1F001F1F1F1F1F1F1F00001F2F
:102E10001F1F1F1F1F0000001F1F1F1F1F0000007C
:102E2000001F1F1F1F00000000001F1F1F000000C9
:102E30000000001F1F000000000000001F0000A095
:102E40004201000000DC0380000000400014005438
:102E500000000000002A028A01B7017702E801C6DB
:102E600001DA0100000000550328036B04FE022173
:102E7000030E03FF0200000000E2058A016B0497C5
:102E8000026E616E00696E66006F7666004D4F4F90
:102E9000443A200043414C4D2020200043524F57DC
:102EA0004420414E414C595A45520076322E302032
:102EB000424F4F54494E470043414C4942524154BE
:102EC000494E472E2E2E003E004D4F4F443A002CC7
:102ED0000043414C4D004143544956450045584339
:102EE00049544544004348414F5449430053434FDC
:102EF00052453A0041435449564520005B444154F1
:102F0000415D204176673A00207C205661723A008C
:102F1000207C2053636F72653A00207C204E6F72D4
:102F20006D3A00207C205065616B3A000D0A00006C
:107E0000112484B714BE81FFF0D085E080938100F7
:107E100082E08093C00088E18093C10086E0809377
:107E2000C20080E18093C4008EE0C9D0259A86E02C
:107E300020E33CEF91E0309385002093840096BBD3
:107E4000B09BFECF1D9AA8958150A9F7CC24DD24C4
:107E500088248394B5E0AB2EA1E19A2EF3E0BF2EE7
:107E6000A2D0813461F49FD0082FAFD0023811F036
:107E7000013811F484E001C083E08DD089C08234E0
:107E800011F484E103C0853419F485E0A6D080C0E4
:107E9000853579F488D0E82EFF2485D0082F10E0AE
:107EA000102F00270E291F29000F111F8ED06801E7
:107EB0006FC0863521F484E090D080E0DECF843638
:107EC00009F040C070D06FD0082F6DD080E0C81688
:107ED00080E7D80618F4F601B7BEE895C0E0D1E017
:107EE00062D089930C17E1F7F0E0CF16F0E7DF06D8
:107EF00018F0F601B7BEE89568D007B600FCFDCFD4
:107F0000A601A0E0B1E02C9130E011968C91119780
:107F100090E0982F8827822B932B1296FA010C0160
:107F200087BEE89511244E5F5F4FF1E0A038BF0790
:107F300051F7F601A7BEE89507B600FCFDCF97BE46
:107F4000E89526C08437B1F42ED02DD0F82E2BD052
:107F50003CD0F601EF2C8F010F5F1F4F84911BD097
:107F6000EA94F801C1F70894C11CD11CFA94CF0C13
:107F7000D11C0EC0853739F428D08EE10CD085E9AC
:107F80000AD08FE07ACF813511F488E018D01DD067
:107F900080E101D065CF982F8091C00085FFFCCF94
:107FA0009093C60008958091C00087FFFCCF809118
:107FB000C00084FD01C0A8958091C6000895E0E648
:107FC000F0E098E1908380830895EDDF803219F02E
:107FD00088E0F5DFFFCF84E1DECF1F93182FE3DFCA
:107FE0001150E9F7F2DF1F91089580E0E8DFEE27F6
:047FF000FF270994CA
:027FFE00040479
:00000001FF
